:03000000021049A2
:0C104900787FE4F6D8FD7581210210903C
:100CE10070726F636573733A3025252020202020B0
:100CF1002000202020202020202020202020202013
:100D010020200041542B5253540D0A0070726F631E
:100D11006573733135252520202020202000415482
:100D21002B43574D4F44453D310D0A0070726F639F
:100D31006573733A3530252520202020202000417D
:100D4100542B43574A41503D226E6F7267696E22A0
:100D51002C223132333435363738220D0A00707285
:100D61006F636573733A36302525202020202020BB
:100D71000041542B4D515454555345524346473D20
:100D8100302C312C226D7955736572222C226164CD
:100D91006D696E222C226E6F7267696E323030324D
:100DA100222C302C302C22220D0A0070726F6365C8
:100DB10073733A383025252020202020200041540B
:100DC1002B4D515454434F4E4E3D302C2234322E34
:100DD10035312E34312E313037222C313838332C05
:100DE100300D0A0070726F636573733A39392525C6
:100DF1002020202020200041542B4D515454535584
:100E0100423D302C22636D64222C300D0A00415486
:100E11002B4D5154545055423D302C226461746124
:100E2100222C2241252E316642252E316643252E64
:100E31003166222C302C300D0A0041542B4D515477
:100E4100545055423D302C2264617461222C224061
:100E5100222C302C300D0A0074656D70573A252E06
:100E61003166202020202020200074656D70443AD6
:100E7100252E3166202020202020200052483A25AE
:100E81002E31662525202020202000436F6E6E65BF
:100E910063746564202020202020202020004469E4
:100EA10073636F6E6E6563742020202020202020E4
:010EB1000040
:1015F30041000800410007004100000041001700BE
:101590001204FE6010F5993099FDC299740129F981
:0615A000E43AFA80EB22A0
:100A650090005A74FFF0A3740CF0A374E1F07B01BD
:100A75007A00791A1206477B017A00791A7D017F7F
:100A85000112147E90005A74FFF0A3740CF0A37445
:100A9500F3F07B017A00791A1206477B017A007917
:100AA5001A7D017F0212147EC2AC7BFF7A0D790498
:100AB5001215909000177401F0E4900009F0900071
:100AC50017E070FA7FC8FE12151A90005A74FFF0ED
:100AD500A3740DF0A3740DF07B017A00791A120648
:100AE500477B017A00791A7D017F0112147E9000FF
:100AF5005A74FFF0A3740CF0A374F3F07B017A0031
:100B0500791A1206477B017A00791A7D017F021254
:100B1500147E7BFF7A0D791F1215909000177401D2
:100B2500F0E4900009F0900017E070FA7FC8FE121B
:100B3500151A90005A74FFF0A3740DF0A3742DF0EC
:100B45007B017A00791A1206477B017A00791A7DB2
:100B5500017F0112147E90005A74FFF0A3740CF00B
:100B6500A374F3F07B017A00791A1206477B017AA8
:100B750000791A7D017F0212147E7BFF7A0D794080
:100B85001215909000177401F0E4900009F09000A0
:100B950017E070FA7FF47E0112151A90005A74FF5F
:100BA500F0A3740DF0A3745FF07B017A00791A123B
:100BB50006477B017A00791A7D017F0112147E9028
:100BC500005A74FFF0A3740CF0A374F3F07B017A60
:100BD50000791A1206477B017A00791A7D017F0296
:100BE50012147E7BFF7A0D7972121590900017749E
:100BF50001F0E4900009F0900017E070FA7FC8FE5C
:100C050012151A90005A74FFF0A3740DF0A374AC7A
:100C1500F07B017A00791A1206477B017A00791A6E
:100C25007D017F0112147E90005A74FFF0A3740CAD
:100C3500F0A374F3F07B017A00791A1206477B0161
:100C45007A00791A7D017F0212147E7BFF7A0D7975
:100C5500BF1215909000177401F0E4900009F09010
:100C65000017E070FA7FC8FE12151A90005A74FF3B
:100C7500F0A3740DF0A374E5F07B017A00791A12E4
:100C850006477B017A00791A7D017F0112147E9057
:100C9500005A74FFF0A3740CF0A374F3F07B017A8F
:100CA50000791A1206477B017A00791A7D017F02C5
:100CB50012147E7BFF7A0D79F81215909000177447
:100CC50001F0E4900009F0900017E070FA7FC8FE8B
:0C0CD50012151AD2ACD2A9D28CD28E22F9
:1012D7007E007F3C7D007B017A00791A1205B6906B
:1012E700005A74FFF0A3740EF0A3740FF09000037C
:1012F700E0FCA3E0FDA3E0FEA3E0FF90005D120584
:101307006490000AE0FCA3E0FDA3E0FEA3E0FF90E9
:10131700006112056490000EE0FCA3E0FDA3E0FE6F
:10132700A3E0FF9000651205647B017A00791A1229
:0B13370006477B017A00791A0215902E
:100EB20012000E1215A612160412165612165C1203
:100EC200164F12144E900056EFF01210D590000AF1
:100ED20012056412115C90000E12056490000EE07F
:100EE200FCA3E0FDA3E0FEA3E0FF90000AE0F8A36C
:100EF200E0F9A3E0FAA3E0FB12002D7BEC7A517932
:100F020038783F12011E7B667A6679227842120097
:100F12002D900003120564900056E024FE60281410
:100F2200602A2402702C900007E070047F01800286
:100F32007F00900007EFF07BFF7A0E793B1215904D
:100F4200E4900016F0800B120A6580069000087487
:100F520001F0900007E0706590005A74FFF0A374EE
:100F62000EF0A37459F090000AE0FCA3E0FDA3E0A8
:100F7200FEA3E0FF90005D1205647B017A00791AFE
:100F82001206477B017A00791A7D017F0112147ED5
:100F920090005A74FFF0A3740EF0A3746BF09000EB
:100FA2000EE0FCA3E0FDA3E0FEA3E0FF90005D12D3
:100FB20005647B017A00791A120647806B9000075C
:100FC200E06401707090005A74FFF0A3740EF0A3F5
:100FD200747DF0900003E0FCA3E0FDA3E0FEA3E03B
:100FE200FF90005D1205647B017A00791A120647B0
:100FF2007B017A00791A7D017F0112147E9000161E
:10100200E0640190005A700C74FFF0A3740EF0A318
:10101200748C800A74FFF0A3740EF0A3749FF07BAB
:10102200017A00791A1206477B017A00791A7D014A
:101032007F0212147E900008E064016003020EC475
:07104200F01212D7020EC4E8
:03000B0002126876
:10126800C0E0C083C082C0D075D000C006C007757A
:101278008C4C758AD5900009E004F0900002E004D7
:10128800F07006900001E004F0900009E064287016
:1012980008900017F0900009F0900018E0FEA3E015
:1012A800FF900001E0B50616A3E0B5071190000015
:1012B800E064017009A3F0A3F090000804F0D2A93B
:0F12C800D28CD007D006D0D0D082D083D0E032E5
:030023000211E3E4
:1011E300C0E0C083C082C0D0900017E4F0E599B49A
:1011F30044059000088060E599B44611900001E42D
:10120300F0A3F0900018F0A3740AF0804DE599B4B0
:101213007811900001E4F0A3F0900018F0A3741487
:10122300F08037E599B47711900001E4F0A3F090D2
:101233000018F0A3741EF08021E599B46B059000AB
:10124300008014E599B47307900000E4F0800BE587
:1012530099B423069000167401F0C298D0D0D082BE
:05126300D083D0E03251
:0615BC00C2A58F80D2A73A
:0C15C2007508027509C7D509FDD508FAA7
:0115CE0022FA
:0A163300C2A61215BCC2A70215C220
:0A163D00D2A61215BCC2A70215C206
:10153A00AE07EEFB7A0064017004ED148009EB64D7
:0E154A00024A7009ED243F4480FF121633223E
:10000E007F381216337F0C1216337F061216337F8B
:04001E000102163392
:0B147E00900057EBF0A3EAF0A3E9F0A8
:1014890012153AE4FE900057E0FBA3E0FAA3E0F955
:101499008E82758300120517FF600612163D0E80B5
:0114A900E45E
:0114AA00221F
:1015A600759850758920758780758DF3758BF3D284
:0615B600ACD2AFD28E2280
:10160400438901758C4C758AD0D2A9D28CD2AF2271
:10151A00E4FDFCC3ED9FEC9E5015E4FAFB0BBB0007
:0F152A00010AEB647B4A70F50DBD00010C80E4F3
:01153900228F
:051614000D7F017E00C6
:0B161900EF1FAC0670011E4C70F622A3
:1015CF00C2B77F4B7E00121619D2B77F027E000280
:0215DF001619DB
:10134200E4FD30B70FEDC3941474809480500512FD
:10135200161480EEEDC394147480948040037F01D0
:1013620022E4FD20B70FEDC39414748094805005DD
:1013720012161480EEC3ED94147480948040037F9F
:0413820001227F00C5
:011386002244
:061656001215CF02134241
:0813CC001215CF1213427FCC71
:0213D400AD0763
:1013D600E4FBEBC3940874809480502AED5401FA20
:1013E600EDC313FDEA600FC2B70000D2B77F067ED9
:1013F60000121619800DC2B77F067E00121619D28A
:06140600B700000B80CCD2
:01140C0022BD
:10155800E4FDC2B70000D2B7000030B7030D800227
:0B156800E4FD7F057E00121619AF05A0
:011573002255
:1014D200E4FBFAFFEBC39408748094805013121556
:1014E20058EFC43333335480FEEAC3134EFA0B80F1
:0314F200E3AF0263
:0114F50022D4
:080003001213CC7F440213D458
:1010D500E4FFF990005BF0A3F01200031213CC7F3C
:1010E500BE1213D41214D2A9071214D2EFFE7C003B
:1010F500E429FFEC3EFE90005BF0A3EFF0EE54F820
:10110500FEEE90005BB4F827E0FEA3E0F4FFEEF4FA
:10111500FEEF2401FFE43EFE90005BF0A3EFF0FD3F
:10112500AC06E4120229E4FBFA798078BD8010E070
:10113500FCA3E0FDE4120229E4FBFA7980783D1274
:10114500011E900057120564900057E0FCA3E0FDD6
:06115500A3E0FEA3E0FF91
:01115B002271
:1015E100C2B67F4B7E00121619D2B67F027E000270
:0215F1001619C9
:10138700E4FD30B60FEDC3941474809480500512B9
:10139700161480EEEDC394147480948040037F018B
:1013A70022E4FD20B60FEDC3941474809480500599
:1013B70012161480EEC3ED94147480948040037F5A
:0413C70001227F0080
:0113CB0022FF
:06165C001215E1021387E4
:08140D001215E11213877FCCD8
:02141500AD0721
:10141700E4FBEBC3940874809480502AED5401FADE
:10142700EDC313FDEA600FC2B60000D2B67F067E99
:1014370000121619800DC2B67F067E00121619D249
:06144700B600000B80CC92
:01144D00227C
:10157400E4FDC2B60000D2B6000030B6030D80020E
:0B158400E4FD7F057E00121619AF0584
:01158F002239
:1014F600E4FBFAFFEBC39408748094805013121532
:1015060074EFC43333335480FEEAC3134EFA0B80B0
:03151600E3AF023E
:0115190022AF
:0816470012140D7F440214157A
:10115C00E4FFF990005BF0A3F012164712140D7F18
:10116C00BE1214151214F6A9071214F6EFFE7C0029
:10117C00E429FFEC3EFE90005BF0A3EFF0EE54F898
:10118C00FEEE90005BB4F827E0FEA3E0F4FFEEF473
:10119C00FEEF2401FFE43EFE90005BF0A3EFF0FDB8
:1011AC00AC06E4120229E4FBFA798078BD8010E0E9
:1011BC00FCA3E0FDE4120229E4FBFA7980783D12ED
:1011CC00011E900057120564900057E0FCA3E0FD4F
:0611DC00A3E0FEA3E0FF0A
:0111E20022EA
:041624007FE87E03DA
:0B162800EF1FAC0670011E4C70F62294
:07164F00D2A1D2A0D2A22219
:10144E0020A10C12162420A12430A1FD7F01222000
:10145E00A00C12162420A01530A0FD7F022220A27F
:10146E000C12162420A20630A2FD7F03227F00223A
:10002600020297E86480F8E933E83360110460F06F
:10003600ED33EC337009E8FCE9FDEAFEEBFF220440
:1000460060DED3EB9FEA9EE99DE8C2E78CF0C2F73B
:1000560095F0400CE8CCF8E9CDF9EACEFAEBCFFB07
:1000660012026285D0F05804700320D5B3E80470FC
:10007600075002B2D50202A192D5EC0460F7E4CC97
:10008600C0E0C398F8603B94186008400DD0E0FBD0
:10009600020279E4FBFAC9FC8028E830E406E4C9E8
:1000A600FBE4CAFCE830E305E4C9CACBFCE8540724
:1000B6006010F8C3E913F9EA13FAEB13FBEC13FC2F
:1000C600D8F130F52FC3E49CFCEF9BFFEE9AFEEDD2
:1000D60099FDD0E0FBEF4E4D4C701222DB0302027D
:1000E6009EEC2CFCEF33FFEE33FEED33FDED30E7F7
:1000F600EB020279EF2BFFEE3AFEED39FDD0E0FB85
:1001060050130BBB00030202A1ED13FDEE13FEEF2D
:0801160013FFEC13FC02027957
:10011E00EC4D6011E8497017ED33EC3304600DE4DB
:10012E00FCFFFEFD22E933E8330470F80202971259
:10013E00026258046009E4CC24815006285009025A
:10014E0002A128400302029EC0E0EB4A7044B9802F
:10015E0006D0E0FB02028DEF4E701CBD8008EBFF57
:10016E00EAFEE9FD80EBE98DF0A4FEE5F002020760
:10017E00E9CDF9EAFEEBFFEF89F0A4FCE5F0CE89BC
:10018E00F0A42EFFE435F0CD89F0A42DFEE435F079
:10019E008067EF4E7005BD80D780C3EF8BF0A4ACA7
:1001AE00F0EE8BF0A42CFCE435F0F8EF8AF0A42CE2
:1001BE00E5F038FCE433CB8DF0A42CFCE5F03BF8F5
:1001CE00EE8AF0A42CFCE5F038F8E433CF89F0A4E5
:1001DE002CFCE5F038CF3400CE89F0A42FFFE5F0EB
:1001EE003EFEE433C98DF0A42EFEE5F039CD8AF043
:1001FE00A42FFFE5F03EFEE43DFD33D0E0FB5007BB
:10020E000BBB000F0202A1EC2CFCEF33FFEE33FE12
:06021E00ED33FD02027940
:1002240075F020800E75F010800575F0087D007E55
:10023400007F003392D530D503120556EC334010BD
:10024400EF33FFEE33FEED33FDEC33FCD5F0ED225E
:0E025400E5F0247EA2D513CC92E7CDCEFF229A
:1005E200E508245AF582E43400F583E005082290F8
:1005F200005730070390005AE475F00112057002AB
:1006020004FE2000E97F2ED2008018EF540F2490C0
:10061200D43440D4FF30040BEF24BFB41A0050038B
:100622002461FFE50960021509050CE50C7002055D
:100632000B30070E900057E475F001120570EF02BF
:1006420005440214AB7403D2078003E4C207F50821
:10065200900057120587E4F509F50BF50CE50960E2
:10066200077F2012062580F5750AFFC201C200C26B
:1006720002C203C205C206C2081205F1FF700D30A4
:1006820007057F00120636AF0CAE0B22B4255FC2FF
:10069200D5C2041205F1FF24D0B40A00501A75F035
:1006A2000A780930D50508B6FF0106C6A426F62049
:1006B200D5047002D20380D924CFB41A00EF5004BB
:1006C200C2E5D204020928D20180C6D20080C0D27B
:1006D2000280BCD2D580BAD20580B47F2012062512
:1006E2002002077401B5090040F11205E2FF12066B
:1006F2002502065FD208D20680951205E2FB12059A
:10070200E2FA1205E2F94A4B700679267A0A7BFF71
:1007120020022EE509602A7E008E82758300120572
:100722001760060EEE650A70F0C2D5EBC0E0EAC0B3
:10073200E0E9C0E0EE120989D0E0F9D0E0FAD0E0B9
:10074200FB1204FEFF60AAEBC0E0EAC0E0E9C0E0F1
:10075200120625D0E02401F9D0E03400FAD0E0FB03
:10076200E50A0460DCD50AD98087D20280A2120988
:100772006B60F7E50A7001041202ACA90A600DE58C
:100782000A600914F50A120A13EF60F3EA30E7026D
:10079200F404C3995079EAF4250A0430E701E40429
:1007A200F50A800D12096B60C1EA050A250A1202D8
:1007B200ACEA900086F030E701E4250A04D50A0489
:1007C20020050114120989E4C0E0120A1390008680
:1007D200E0601320E70714F012060D802204F0D027
:1007E200E014C0E07F0012060DE50A60071206045D
:1007F200150A800B300503120604D0E002065FD012
:10080200E00480C412096B609EE50A041202AC90F7
:100812000086EAF0E50A20050260010424041209B8
:01082200894C
:1008230074FF04C0E0120A1312060DE50A20050244
:100833006003120604D0E0B50AE87F45120617905C
:100843000086E07F2B30E7047F2DF404C0E012061E
:1008530025D0E075F00A84C0F012060ED0E012062F
:100863000E02065F791080027908C206C20880086A
:10087300D2D5790A8004790AC2D5E50A047002F553
:100883000AE4FAFDFEFF1205E2FC7B0820011312C5
:1008930005E2FD7B1030000A1205E2FE1205E2FFBD
:1008A3007B20EC3382D592D55013C3E43000069FEE
:1008B300FFE49EFEE42001039DFDE49CFCE4CBF8F1
:1008C300C201EC700CCFCECDCCE824F8F870F380E5
:1008D30017C3EF33FFEE33FEED33FDEC33FCEB33A5
:1008E300FB994002FB0FD8E9EB300105F8D0E0C4D7
:1008F30048B201C0E00AEC4D4E4F78207B0070C235
:10090300EAB50A0040BCC0E012098BD0F0D0E02069
:100913000104C4C0E0C4B201C0F012060ED0F0D589
:10092300F0EB02065F12059006FC5308675806CDEC
:100933004C06C942086B4F08734408734906E243E7
:1009430008795507A6460806450770470A46500624
:10095300D12D06D52E06F82B06D92306F6200A2F0D
:100963002A069148000006F0E50AB4FF03750A065B
:100973001205E2FC1205E2FD1205E2FE1205E2FF9A
:1009830090007F0202E9790AA2D5200314300509F9
:10099300B910020404B9080104A2D52006025001CB
:1009A300042002689202B509005034C0E07F203071
:1009B30003197F30A20272067205500F1209E2C2B8
:1009C30002C206C205C2087F30800F300503E9C0AA
:1009D300E0120625300503D0E0F9D0E0B509CC30AC
:1009E30005177F30B9100C1206257F583004077F96
:1009F300788003B908031206253002057F2D02060D
:100A0300257F202008F87F2B2006F322920280CF37
:100A13007F00B40700500B247FF582E43400F58394
:100A2300E0FF22286E756C6C2900D2011205E230BA
:100A330001F8C201780930D50108F60206912D505C
:100A43004349581205E22403B405004001E4900A27
:100A53004193120616743A120616D203750904025C
:020A6300086722
:10026200E9D2E7C933E833F892D5EDD2E7CD33ECE2
:0702720033FC5002B2D5225B
:10027900EC30E7100FBF000C0EBE00080DBD0004E6
:100289000BEB6014A2D5EB13FCED92E7FD2274FF92
:10029900FCFDFEFF22E480F8A2D574FF13FC7D80EB
:0302A900E480EFFF
:1002AC00F920E73624F950037907E4F42402FBE53E
:1002BC0082158270021583DBF6E024FB501BE9608B
:1002CC0014E4F0E582158270021583E004F0B40AA0
:0D02DC0008E4F0D9EE7401F00A22C2D52228
:1002E900ED33EC3392D5FA602AB4FF33EDC2E77BE4
:1002F900FF60067A03790EE4227A03791720D50480
:100309007A037912224E614E002B494E46002D493F
:100319004E4600E47A08F0A3DAFC7B00740722C099
:1003290083C082ECC0E0EDC0E0EEC0E0EFC0E0EADF
:1003390075F010A4CAABF075F04DA42BFBE435F0B1
:10034900FCEA2410FAEB34C5FBEC34D9FCEDC2E726
:10035900FF75F056A4F42411C5F0F434C58FF0A448
:100369002AE5F03BE43CF020E7141204BED0E0FF9C
:10037900D0E0FED0E0FDD0E0FC1203F18014F404DB
:100389001204BED0E0FFD0E0FED0E0FDD0E0FC12C8
:10039900011ED082D083E0FAEDD2E7CD33EC3324CD
:1003A90082FBE4C3CF33CFCE33CECD33CD33DBF3B2
:1003B9007B0775F00A846004F0A31B0AE5F0F0A33B
:1003C9008FF0740AA4FFACF08EF0740AA42CFEAC72
:1003D900F050010C8DF0740AA42CFDE435F0F0A363
:0503E900DBDE740722B9
:1003EE000202A1EC5D046005E85904700302029755
:1003FE00120262580460F6EC4860F2EC7004FDFEE6
:10040E00FF22C860DB2481C85009C39860025006E1
:10041E0002029E9850CAF582E9294B4A7005AB82BA
:10042E0002028D75F0007C1A7880C3EF9BEE9AED78
:10043E0099400DC3EF9BFFEE9AFEED99FDE842F059
:10044E00DC23ACF0D0E0FFD0E0FED0E0FDAB8220AC
:10045E00E7101BEB60BAEC2CFCEF33FFEE33FEED36
:10046E0033FD020279E803F830E705C0F075F000BD
:10047E00EF2FFFEE33FEED33FD40B830E7C280AA1A
:10048E003F8000004120000042C80000447A000076
:10049E00461C400047C35000497424004B189680F8
:1004AE004CBEBC205A0E1BCA6753C21C749DC5AEEF
:1004BE00FB60065407601C23231204ECEB543860D7
:1004CE00091204D81204E712011EECF8EDF9EEFA47
:1004DE00EFCB22EB1204E780F1543803241C900476
:1004EE008EFE93FC0EEE93FD0EEE930ECE93FF2238
:10105500020EB2E493A3F8E493A34003F68001F2F1
:1010650008DFF48029E493A3F85407240CC8C3339C
:10107500C4540F4420C8834004F456800146F6DF6B
:10108500E4800B01020408102040809015F3E47EF3
:10109500019360BCA3FF543F30E509541FFEE49360
:1010A500A360010ECF54C025E060A840B8E493A327
:1010B500FAE493A3F8E493A3C8C582C8CAC583CA52
:1010C500F0A3C8C582C8CAC583CADFE9DEE780BE0A
:0116030000E6
:1004FE00BB010689828A83E0225002E722BBFE02FC
:09050E00E32289828A83E493222E
:10051700BB010CE58229F582E5833AF583E0225099
:1005270006E92582F8E622BBFE06E92582F8E222E3
:0D053700E58229F582E5833AF583E49322FD
:10054400BB010689828A83F0225002F722BBFE0196
:02055400F32290
:0E055600C3E49FFFE49EFEE49DFDE49CFC22B6
:0C056400ECF0A3EDF0A3EEF0A3EFF0220A
:10057000F8E0FBA3A3E0F925F0F0E5821582700214
:070580001583E0FA38F022B8
:09058700EBF0A3EAF0A3E9F02275
:10059000D083D082F8E4937012740193700DA3A3FA
:1005A00093F8740193F5828883E47374029368600E
:0605B000EFA3A3A380DF0E
:1014AB00EFB40A07740D1214B6740A309811A89988
:1014BB00B8130CC2983098FDA899C298B811F630A1
:0714CB0099FDC299F5992279
:1005B600EF4E6012EF60010EEDBB010B89828A835C
:1005C600F0A3DFFCDEFA2289F05007F709DFFCA969
:0C05D600F022BBFEFCF309DFFCA9F022C0
:00000001FF
